:020000040800F2
:1000000000000220C91A00083B0700083D0700084D
:100010003F070008410700084307000800000000F0
:10002000000000000000000000000000450700087C
:100030004707000800000000490700084B070008B8
:10004000191B0008191B0008191B0008191B0008C0
:10005000191B0008191B0008191B0008191B0008B0
:10006000191B0008191B0008191B0008191B0008A0
:10007000191B0008191B0008191B0008191B000890
:10008000191B0008191B0008191B0008191B000880
:10009000191B0008191B0008191B0008191B000870
:1000A000191B0008191B0008191B0008191B000860
:1000B000191B0008191B0008191B0008191B000850
:1000C000191B0008191B0008191B0008191B000840
:1000D000191B0008191B0008191B0008191B000830
:1000E000191B0008191B0008191B0008191B000820
:1000F000191B0008191B0008191B0008191B000810
:10010000191B0008191B0008191B0008191B0008FF
:10011000191B0008191B0008B1080008C5080008D1
:10012000191B0008191B0008191B0008191B0008DF
:10013000191B00080000000000000000191B000847
:10014000191B0008191B0008191B0008191B0008BF
:10015000191B0008191B0008191B0008191B0008AF
:10016000191B0008191B0008191B0008191B00089F
:10017000191B0008191B0008191B000800000000CB
:1001800000000000191B0008000000000000000033
:10019000191B00080000000000000000191B0008E7
:1001A000000000000000000000000000191B000813
:1001B000191B0008191B0008191B0008191B00084F
:0401C000191B0008FF
:1001C40010B5054C237833B9044B13B10448AFF38D
:1001D40000800123237010BD740000200000000083
:1001E4000823000808B5034B1BB103490348AFF3C8
:1001F400008008BD000000007800002008230008EB
:1002040053B94AB9002908BF00281CBF4FF0FF3179
:100214004FF0FF3000F072B9ADF1080C6DE904CE77
:1002240000F006F8DDF804E0DDE9022304B07047CD
:100234002DE9F047089E04468846002B4BD18A429C
:10024400154667D9B2FA82F24AB1C2F1200701FA1F
:1002540002F320FA07F7954047EA030894404FEA6F
:10026400154E230CB8FBFEF71FFA85FC0EFB17880E
:1002740043EA084307FB0CF1994209D9EB1807F14B
:10028400FF3080F01B81994240F21881023F2B44D9
:100294005B1AA4B2B3FBFEF00EFB103344EA034432
:1002A40000FB0CFCA44509D92C1900F1FF3380F0A4
:1002B4000781A44540F2048102382C4440EA0740F7
:1002C400A4EB0C0400271EB1D4400023C6E900436C
:1002D4003946BDE8F0878B4209D9002E00F0EB8047
:1002E4000027C6E9000138463946BDE8F087B3FA6D
:1002F40083F7002F47D18B4202D3824200F2FA8067
:10030400841A61EB030301209846002EE0D0C6E96D
:100314000048DDE702B9FFDEB2FA82F2002A40F0BB
:100324008F80491B4FEA154E1FFA85F80127B1FB50
:10033400FEFC230C0EFB1C1143EA014308FB0CF1E9
:10034400994207D9EB180CF1FF3002D2994200F21E
:10035400CD808446591AA3B2B1FBFEF00EFB1014F3
:1003640043EA044408FB00F8A04507D92C1900F11E
:10037400FF3302D2A04500F2B6801846A4EB08046D
:1003840040EA0C409FE7C7F1200CBB4022FA0CFE68
:100394004EEA030E01FA07F420FA0CF521FA0CF3E5
:1003A4004FEA1E482543B3FBF8F92C0C08FB19331C
:1003B4001FFA8EFA44EA034309FB0AF49C4202FA48
:1003C40007F200FA07F10BD91EEB030309F1FF3022
:1003D40080F087809C4240F28480A9F10209734432
:1003E4001B1BADB2B3FBF8F008FB103345EA034422
:1003F40000FB0AFAA24508D91EEB040400F1FF33FE
:100404006BD2A24569D90238744440EA0940A0FB82
:100414000289A4EB0A044C45C2464B4654D351D03E
:10042400002E69D0B1EB0A0564EB030404FA0CFC5A
:10043400FD40FC404CEA0505C6E90054002747E7A7
:10044400C2F1200320FA03F7954001FA02F021FAE1
:1004540003F34FEA154E3843010CB3FBFEF71FFAC2
:1004640085F80EFB173341EA034107FB08F38B427F
:1004740004FA02F407D9691807F1FF3C2FD28B4222
:100484002DD9023F2944CB1A81B2B3FBFEF00EFBF7
:10049400103341EA034100FB08F38B4207D9691882
:1004A40000F1FF3C17D28B4215D902382944C91AEE
:1004B40040EA07473BE73746304609E70746E7E6A1
:1004C4001846FBE64145ABD2B8EB020A69EB0E02D3
:1004D40001381346A4E76046E9E7184695E76746FE
:1004E400D1E781467CE702382C4447E7ACF1020CA3
:1004F4002B442FE7384608E73746E9E6704700BF44
:1005040070B5A0B03422002113A801F041FB0024EF
:100514000E940F9410941194129409940A940B94C9
:100524000C940D9400F066FA0194514B5A6C42F409
:1005340080425A645A6C02F480420192019A0294F5
:100544001A6C42F080521A641A6C02F080520292C1
:10055400029A03941A6B42F001021A631A6B02F0B6
:1005640001020392039A04941A6B42F002021A6382
:100574001A6B02F002020492049A05941A6B42F078
:1005840004021A631A6B02F004020592059A069497
:100594001A6B42F008021A631A6B02F00802069200
:1005A400069A07941A6B42F080021A631B6B03F0DD
:1005B40080030793079B08942E4B1A6842F4404229
:1005C4001A601B6803F440430893089B072000F05B
:1005D4003DFA012313934FF48033149302231993A8
:1005E4004FF480021A9204221B92B4221C921D938F
:1005F40003221E921F9313A800F060FD002834D13B
:10060400254600F083FB00B101250F230E9302233E
:100614000F93002310934FF4A05311934FF480537E
:10062400129305210EA800F0B1FB00B10125124E72
:1006340000222021304600F063FB4FF4005309935D
:100644000E4B0A9300240B9409A90D4800F07AFA82
:100654002023099301230A930B940C9409A930468F
:1006640000F070FA284620B070BD0125C9E700BF2C
:1006740000380240007000400000024000002110D9
:100684000008024000B583B0FFF73AFF0A4C00228D
:10069400009213464FF41651204600F01BF92046F1
:1006A40000F04EF900F070F94FF47A725A2104F117
:1006B400400000F0B9F8FEE790000020002202801C
:1006C40070470000012800D0704738B54FF6FF731B
:1006D400994200D038BD0A4C04F14400FFF7EEFF04
:1006E400084D2A46084904F1400001F014FA204656
:1006F40000F002F92A460549204601F00CFAE9E720
:100704009000002000000020FD07000829090008CF
:10071400038819440180704708B501210148FFF797
:10072400F7FF08BDD400002008B54FF6FF71012083
:10073400FFF7C8FF08BD7047FEE7FEE7FEE7FEE7E8
:1007440070477047704708B500F06EF908BD70B582
:100754000D461646002404E0AFF3008028700134EF
:100764000135B442F8DB304670BD70B5164600243E
:1007740005E04D1C0878AFF3008001342946B442EB
:10078400F7DB304670BD000008B503460B4A12681B
:1007940042B10A4A106803446A46934206D8074A9B
:1007A400136008BD054A06491160F2E701F0C6F975
:1007B4000C2303604FF0FF30F3E700BFD8000020A4
:1007C400700100204FF0FF3070474FF400534B602E
:1007D4000020704700207047054BD3F8882042F46E
:1007E4007002C3F888204FF000629A60704700BF1F
:1007F40000ED00E07047000038B50546084C20467F
:1008040000F06EFE372000F075F9204600F03AFE45
:10081400044A136C23F020031364284638BD00BF38
:10082400200100200038024070B584B00E46154601
:100834000024029403940194184B1A6C42F0200291
:100844001A641B6C03F020030193019B224621468A
:10085400372000F00DF9372000F03EF91048114B15
:100864000364013E46648464013DC564802383655A
:10087400403000F071FF10B1012004B070BD02944B
:100884008023039302A9084800F080FF08B10120E7
:10089400F3E7054800F013FE2046EEE70038024077
:1008A400E0000020001400402001002008B50348A7
:1008B40000F031FEFFF79EFF08BD00BFE0000020FE
:1008C40008B5034800F027FEFFF726FF08BD00BF68
:1008D4002001002010B541608260C360029B036167
:1008E4000C23436100238361C36101F0A2F808B9BA
:1008F400002010BD0120FCE782B000230193074BC8
:100904001A6C42F400321A641B6C03F40033019332
:10091400019B034B036002B0704700BF00380240E4
:100924000044004010B5044601F0B3F8034A136CC8
:1009340023F400331364204610BD00BF0038024086
:1009440010B586B0002400940D4B1A6B42F00102DE
:100954001A631B6B03F001030093009B0C230193A8
:100964000223029301230393032304930723059390
:1009740001A9044800F0E6F8204606B010BD00BF07
:10098400003802400000024010B5064C23680021E4
:10099400986801F005F923680021586801F000F90E
:1009A40010BD00BF100000207047000010B50446C1
:1009B4000E4B18784FF47A73B3FBF0F30C4A1068BB
:1009C400B0FBF3F000F0A8F868B90F2C01D90120AE
:1009D4000AE0002221464FF0FF3000F049F8034BB3
:1009E4005C60002000E0012010BD00BF0800002072
:1009F4000400002008B50B4B1A6842F400721A6018
:100A04001A6842F480621A601A6842F480721A60AA
:100A1400032000F01BF80020FFF7C8FFFFF7C4FF16
:100A2400002008BD003C0240034A1168034B1B78B8
:100A34000B441360704700BF6801002008000020C9
:100A4400014B1868704700BF68010020074AD3684B
:100A540023F4E0631B041B0C000200F4E060184361
:100A640040F0BF6040F40030D060704700ED00E01B
:100A740030B4174BDB68C3F30223C3F10704042C1F
:100A840028BF04241D1D062D18D9033B4FF0FF3544
:100A940005FA04F421EA0401994005FA03F322EA71
:100AA4000303194300280BDB0901C9B200F16040BC
:100AB40000F5614080F8001330BC70470023E5E77F
:100AC40000F00F000901C9B2024B1954F4E700BF4A
:100AD40000ED00E014ED00E0002807DB00F01F0249
:100AE400400901239340024A42F82030704700BF76
:100AF40000E100E000280CDB00F01F0240090123A4
:100B040093402030034A42F82030BFF34F8FBFF3A5
:100B14006F8F704700E100E00138B0F1807F0AD2A6
:100B2400064B5860064AF02182F823100020986092
:100B340007221A6070470120704700BF10E000E0F0
:100B440000ED00E000230F2B00F2D180F0B583B05C
:100B540039E0062200E00022AA403A430234644D00
:100B640045F82420634A1468F24302EA04054F68F6
:100B740017F4803F01D046EA04055E4C25606468A2
:100B840002EA04054F6817F4003F01D046EA040561
:100B9400584C6560A46802EA04054F6817F4801F86
:100BA40001D046EA0405534CA560E46822404D6830
:100BB40015F4001F01D046EA04024E4CE2600133F2
:100BC4000F2B00F2928001229A400C6804EA02067C
:100BD400B242F4D14C68651E012D03D9112C01D009
:100BE400122C12D185685F000324BC4025EA040559
:100BF400CC68BC402C438460456825EA02054C68F7
:100C0400C4F300129A402A434260C4685F0003227E
:100C1400BA40D24314408D68BD402543C5604C683A
:100C2400022C01D0122C13D1DD08083550F825E030
:100C340003F007044FEA840C0F2404FA0CF42EEAA0
:100C4400040E0C6904FA0CF444EA0E0440F825403E
:100C5400046822404C6804F00304BC402243026050
:100C64004A6812F0805FAAD000220192224A546C92
:100C740044F480445464526C02F480420192019A18
:100C84009C08A51C1A4A52F8257003F0030295002B
:100C94000F22AA4027EA0207184A90423FF45BAFAA
:100CA40002F58062904216D002F58062904214D020
:100CB40002F58062904212D002F58062904210D018
:100CC40002F5806290420ED002F5806290423FF4B9
:100CD40040AF072240E701223EE702223CE703221D
:100CE4003AE7042238E7052236E703B0F0BD70473F
:100CF40000380140003C014000380240000002403E
:100D040012B90904816170478161704710B582B0DE
:100D140000230193194B1A6C42F080521A641B6C25
:100D240003F080530193019B154B01221A60FFF7D6
:100D340087FE0446134B5B6813F4803F08D1FFF72A
:100D44007FFE001BB0F57A7FF4D9032002B010BDFA
:100D54000D4B01221A60FFF773FE0446094B5B68D2
:100D640013F4003F07D1FFF76BFE001BB0F57A7F49
:100D7400F4D90320EAE70020E8E700BF0038024086
:100D840040000E420070004044000E42002800F073
:100D94009E8070B50446504B1B6803F00F038B42D2
:100DA40009D2CBB24C4A1370136803F00F038B4281
:100DB40001D0012070BD236813F0020F17D013F087
:100DC400040F04D0454A936843F4E05393602368C6
:100DD40013F0080F04D0414A936843F460439360CE
:100DE4003E4A936823F0F003A068034393600D46E2
:100DF400236813F0010F32D06368012B21D09A1EAF
:100E0400012A25D9354A126812F0020F61D03349FC
:100E14008A6822F0030213438B60FFF711FE064633
:100E24002E4B9B6803F00C036268B3EB820F16D061
:100E3400FFF706FE801B41F288339842F0D9032065
:100E4400B8E7264A126812F4003FE0D10120B1E766
:100E5400224A126812F0007FD9D10120AAE71E4B62
:100E64001B6803F00F03AB4209D9EAB21A4B1A709C
:100E74001B6803F00F03AB4201D001209AE72368FB
:100E840013F0040F06D0154A936823F4E053E16885
:100E94000B439360236813F0080F07D00F4A93683D
:100EA40023F46043216943EAC103936000F044F8EA
:100EB4000A4B9B68C3F30313094AD35CD840094B1C
:100EC4001860094B1868FFF771FD002072E70120D4
:100ED400704701206EE700BF003C0240003802402A
:100EE40020230008040000200C000020014B186897
:100EF400704700BF0400002008B5FFF7F7FF044B5C
:100F04009B68C3F38223034AD35CD84008BD00BF67
:100F1400003802403023000808B5FFF7E7FF044B10
:100F24009B68C3F34233034AD35CD84008BD00BF77
:100F340000380240302300082DE9F04B5C4B9B68DD
:100F440003F00C03082B07D00C2B5BD0042B00F010
:100F5400AD805848BDE8F08B554B5A6802F03F020B
:100F64005B6813F4800F2AD0514B5B68C3F388137A
:100F74001E4600275C010025E41A65EB0705A9015C
:100F840041EA9461A001001B61EB0501CB0043EA37
:100F94005073C400A01943EB07014B0243EAD0533A
:100FA4004402204619460023FFF72AF9404B5B68A8
:100FB400C3F3014301335B00B0FBF3F0CAE73C4BDE
:100FC4005B68C3F388131E4600275C010025E41AFE
:100FD40065EB0705A90141EA9461A001001B61EBDF
:100FE4000501CB0043EA5073C400A01943EB070189
:100FF4008B0243EA90538402204619460023FFF7EC
:10100400FFF8D3E72A4B5A6802F03F025B6813F4F7
:10101400800F28D0264B5B68C3F388131E46002735
:101024005C010025E41A65EB0705A90141EA946116
:10103400A001001B61EB0501CB0043EA5073C4001F
:10104400A01943EB07014B0243EAD0534402204664
:1010540019460023FFF7D4F8154B5B68C3F30273FA
:10106400B0FBF3F076E7124B5B68C3F388131E46BC
:1010740000275C010025E41A65EB0705A90141EA94
:101084009461A001001B61EB0501CB0043EA50739E
:10109400C400A01943EB07018B0243EA9053840276
:1010A400204619460023FFF7ABF8D5E7024851E77D
:1010B400003802400024F40000127A0070B582B0B7
:1010C4000446036813F0010F41D0A64B9B6803F05C
:1010D4000C03042B32D0A34B9B6803F00C03082BA6
:1010E40027D0A04B9B6803F00C030C2B59D06368EA
:1010F400B3F5803F5BD0B3F5A02F5ED0994B1A684F
:1011040022F480321A601A6822F480221A6063681A
:10111400002B5CD0FFF794FC0546924B1B6813F43C
:10112400003F14D1FFF78CFC401B6428F5D9032041
:101134009DE18C4B5B6813F4800FD2D0894B1B6804
:1011440013F4003F03D06368002B00F08D81236803
:1011540013F0020F67D0834B9B6813F00C0F4AD037
:10116400804B9B6803F00C03082B3FD07D4B9B689E
:1011740003F00C030C2B48D0E368002B74D07A4B9B
:1011840001221A60FFF75CFC0546764B1B6813F0DE
:10119400020F60D1FFF754FC401B0228F5D903204D
:1011A40065E1704B5B6813F4800FA0D0C6E76D4A0D
:1011B400136843F480331360A9E76A4B1A6842F456
:1011C40080221A601A6842F480321A609FE7FFF79F
:1011D40037FC0546634B1B6813F4003FB7D0FFF799
:1011E4002FFC401B6428F5D9032040E15D4B5B686C
:1011F40013F4800FBAD15B4B1B6813F0020F0AD0B3
:10120400E368012B07D0012031E1564B5B6813F4EE
:10121400800FB1D1EFE7534A136823F0F803216933
:1012240043EAC1031360236813F0080F40D06369D5
:1012340063B34E4B01221A60FFF702FC0546494B8B
:101244005B6F13F0020F33D1FFF7FAFB401B022848
:10125400F5D903200BE1434A136823F0F80321690D
:1012640043EAC1031360DEE73F4B00221A60FFF735
:10127400E7FB05463B4B1B6813F0020FD3D0FFF787
:10128400DFFB401B0228F5D90320F0E0374B002296
:101294001A60FFF7D5FB0546324B5B6F13F0020F64
:1012A40006D0FFF7CDFB401B0228F5D90320DEE072
:1012B400236813F0040F79D02A4B1B6C13F0805F62
:1012C40033D100230193274B1A6C42F080521A64E5
:1012D4001B6C03F080530193019B0125244B1B6875
:1012E40013F4807F23D0A368012B34D0052B41D085
:1012F4001C4B1A6F22F001021A671A6F22F00402C3
:101304001A67A368002B3FD0FFF79AFB0646154BDC
:101314001B6F13F0020F48D1FFF792FB801B41F2C1
:1013240088339842F3D90320A1E00025D6E7104A78
:10133400136843F480731360FFF782FB06460C4B7B
:101344001B6813F4807FCED1FFF77AFB801B022841
:10135400F5D903208BE0034A136F43F001031367AD
:10136400CFE700BF0038024000004742800E4742EA
:1013740000700040404B1A6F42F004021A671A6F63
:1013840042F001021A67BCE7FFF75AFB06463A4BE4
:101394001B6F13F0020F08D0FFF752FB801B41F2C2
:1013A40088339842F3D9032061E0E5B9A369002B9F
:1013B4005CD0314A926802F00C02082A59D0022B00
:1013C40017D02E4B00221A60FFF73AFB04462A4B33
:1013D4001B6813F0007F45D0FFF732FB001B022887
:1013E400F5D9032043E0244A136C23F0805313649B
:1013F400DCE7224B00221A60FFF722FB05461E4B56
:101404001B6813F0007F06D0FFF71AFB401B02286D
:10141400F5D903202BE0E369226A1343626A43EAA5
:101424008213A26A5208013A43EA0243E26A43EA97
:101434000263226B43EA02730F4A53600F4B01228B
:101444001A60FFF7FDFA04460B4B1B6813F0007F8C
:1014540006D1FFF7F5FA001B0228F5D9032006E0B0
:10146400002004E0002002E0012000E0002002B09F
:1014740070BD0120FBE700BF003802406000474216
:101484007047704710B50446022380F83D30036866
:10149400196A41F21112114208D1196A40F2444208
:1014A400114203D11A6822F001021A602046FFF7A4
:1014B400E8FF002084F83D0084F83C0010BD026879
:1014C400D36843F00103D3600268936803F0070311
:1014D400062B03D0136843F0010313600020704708
:1014E4000268D36823F00103D3600368196A41F2E8
:1014F4001112114208D1196A40F24442114203D137
:101504001A6822F001021A60002070477047704781
:1015140070477047704710B5044603681A6912F0A3
:10152400020F11D0DA6812F0020F0DD06FF0020230
:101534001A610123037703689B6913F0030F70D0CA
:10154400FFF7E6FF0023237723681A6912F0040FDC
:1015540012D0DA6812F0040F0ED06FF004021A6190
:101564000223237723689B6913F4407F5FD02046CE
:10157400FFF7CEFF0023237723681A6912F0080FC0
:1015840012D0DA6812F0080F0ED06FF008021A6158
:10159400042323772368DB6913F0030F4ED020461E
:1015A400FFF7B6FF0023237723681A6912F0100FA0
:1015B40012D0DA6812F0100F0ED06FF010021A6118
:1015C400082323772368DB6913F4407F3DD020464A
:1015D400FFF79EFF0023237723681A6912F0010F97
:1015E40003D0DA6812F0010F36D123681A6912F0B9
:1015F400800F03D0DA6812F0800F34D123681A699F
:1016040012F0400F03D0DA6812F0400F32D1236891
:101614001A6912F0200F03D0DA6812F0200F30D1CB
:1016240010BDFFF774FF2046FFF773FF8AE72046DB
:10163400FFF76DFF2046FFF76CFF9BE72046FFF79F
:1016440066FF2046FFF765FFACE72046FFF75FFF24
:101654002046FFF75EFFBDE76FF001021A612046E6
:10166400FFF754FFC1E76FF080021A61204600F0D3
:10167400D2F8C3E76FF040021A612046FFF74AFF31
:10168400C5E76FF020021A61204600F0C3F8C7E7EF
:101694000368304A904212D0B0F1804F0FD0A2F5C7
:1016A4007C4290420BD002F58062904207D002F552
:1016B4008062904203D002F57842904203D123F035
:1016C40070034A681343234A90422AD0B0F1804FF2
:1016D40027D0A2F57C42904223D002F5806290424A
:1016E4001FD002F5806290421BD002F578429042EE
:1016F40017D002F57052904213D002F580629042E6
:101704000FD002F5806290420BD0A2F5983290423D
:1017140007D002F58062904203D002F580629042C5
:1017240003D123F44073CA68134323F080034A6946
:10173400134303608B68C3620B688362054B984252
:1017440003D003F58063984201D10B69036301233D
:101754004361704700000140A8B110B5044690F8F9
:101764003D305BB1022384F83D30211D2068FFF732
:101774008FFF012384F83D30002010BD80F83C30F9
:10178400FFF77EFEEEE701207047000090F83C3042
:10179400012B3BD030B4012380F83C30022380F885
:1017A4003D3003685C689D6824F070040A68224335
:1017B4005A600368164A93421AD0B3F1804F17D087
:1017C400A2F57C42934213D002F5806293420FD07B
:1017D40002F5806293420BD002F57842934207D01F
:1017E40002F57052934203D0A2F59432934204D18D
:1017F40025F080054A6815439D60012380F83D303B
:10180400002380F83C30184630BC704702207047F3
:1018140000000140704770472DE9F04B0446026810
:10182400136923F44053C1680B431361836802694D
:10183400134342691343C2691A430168CB6823F412
:10184400164323F00C031343CB600268536923F45B
:10185400407381690B435361C369B3F5004F3BD0B7
:101864000368714A934200F0AB8002F580629342B0
:1018740000F0A680FFF740FB4FF00009061849EB83
:10188400090716EB000B47EB090C4FEACC0343EABC
:101894005B734FEACB0293469C4663689A009B0FA6
:1018A40010EB0B0049EB0C01FEF7AAFC5F4DA5FB06
:1018B40000325109642202FB110213013233A5FBE9
:1018C40003235B0903F0F00202EB011203F00F03A0
:1018D400216813448B60A4E00368534A934239D0CF
:1018E40002F58062934235D0FFF706FB83464FF042
:1018F400000C06184CEB0C0716EB000847EB0C0920
:101904004FEAC90343EA58734FEAC802904699461E
:1019140062680021921841EB01031BEB08004CEBB9
:101924000901FEF76DFC414DA5FB0032510964220B
:1019340002FB1102D3003233A5FB03235B095A00D7
:1019440002F4F87202EB011203F007032168134456
:101954008B6066E0FFF7E0FA80464FF00009061856
:1019640049EB090716EB000B47EB090C4FEACC03D4
:1019740043EA5B734FEACB0293469C4662680021BC
:10198400921841EB010318EB0B0049EB0C01FEF735
:1019940037FC264DA5FB00325109642202FB1102DB
:1019A400D3003233A5FB03235B095A0002F4F87217
:1019B40002EB011203F00703216813448B6030E04B
:1019C400FFF7AAFA4FF00009061849EB090716EBCE
:1019D400000B47EB090C4FEACC0343EA5B734FEA75
:1019E400CB0293469C4663689A009B0F10EB0B0056
:1019F40049EB0C01FEF704FC0C4DA5FB0032510928
:101A0400642202FB110213013233A5FB03235B0999
:101A140003F0F00202EB011203F00F0321681344F8
:101A24008B60BDE8F08B00BF001001401F85EB51B7
:101A3400704758B310B5044690F839300BB32423DB
:101A440084F839302268D36823F40053D3602046E5
:101A5400FFF7E2FE2268136923F4904313612268BE
:101A6400536923F02A0353612268D36843F4005373
:101A7400D3600020E063202384F8393084F83A30BE
:101A840010BD80F83830FFF7D3FFD8E70120704746
:101A94007047A0B110B50446242380F83930026899
:101AA400D36823F40053D360FFF7F2FF0020E06310
:101AB40084F8390084F83A0084F8380010BD012015
:101AC40070470000DFF834D0002103E00C4B5B5872
:101AD400435004310B480C4B42189A42F6D30B4A3C
:101AE40002E0002342F8043B094B9A42F9D3FEF783
:101AF40073FE00F029F8FEF7C5FD704700000220D0
:101B0400B0230008000000207400002074000020AE
:101B140070010020FEE70B460146184600F000B8AD
:101B240010B5054C13462CB10A4601460220AFF30A
:101B3400008010BD2046FCE700000000014B18683F
:101B4400704700BF1000002070B50D4E0D4CA41B53
:101B5400A4100025A54209D10B4E0C4C00F0D2FB79
:101B6400A41BA4100025A54205D170BD56F825304C
:101B740098470135EEE756F8253098470135F2E7E6
:101B8400A4230008A4230008A4230008AC2300080D
:101B940002440346934200D1704703F8011BF9E75E
:101BA40000294FF480630CBF0222002200F000B829
:101BB4002DE9F7431D46514B1E6804460F469046D7
:101BC40026B1B36913B9304600F090F94C4B9C42EE
:101BD40052D17468B8F1020F06D0B8F1010F00F2C7
:101BE4008980002DC0F286802146304600F014F929
:101BF400616B41B104F14403994202D0304600F0D4
:101C04002BFA002363630023A3616360A3891B068B
:101C140003D52169304600F01FFAA38923F44A63EF
:101C240023F00303B8F1020FA3815DD001AB6A4630
:101C34002146304600F0E4F9A3891843A0812DBB66
:101C4400009D284600F000FA074600284ED1DDF832
:101C54000090A9453CD14FF0FF30A38943F0020323
:101C6400A3810023A36004F14703236023610123BC
:101C7400636103B0BDE8F083224B9C4201D1B46898
:101C8400A8E7214B9C4208BFF468A3E7002FD8D0F3
:101C9400B36913B9304600F029F9B8F1010F08BF50
:101CA400A389276004BF43F00103A381A38913F030
:101CB4000800C4E904751BD013F0010018BF6D427D
:101CC4004FF000031DBFA360A5611846A560D0E7CF
:101CD400484600F0B9F907460028BCD0A38943F070
:101CE4008003A3814D46D3E70020B6E7A946F5E774
:101CF400A060BEE74FF0FF30BBE700BF100000203C
:101D04005C2300087C2300083C2300088A892DE911
:101D1400F041054610070C4658D44B68002B05DCEF
:101D24000B6C002B02DC0020BDE8F081E66A002E7B
:101D3400F9D0002312F480522F68216A2B6032D02C
:101D4400606DA3895A0705D56368C01A636B0BB12C
:101D5400236CC01A00230246E66A216A2846B0476B
:101D6400431CA38906D129681D2948D8294ACA4099
:101D7400D60744D500226260D9042269226004D5C2
:101D8400421C01D12B6803B96065616B2F60002987
:101D9400C9D004F14403994202D0284600F05CF90A
:101DA40000206063C0E701232846B047411CC8D126
:101DB4002B68002BC5D01D2B01D0162B01D12F6011
:101DC400B1E7A38943F04003A381ADE70F69002F76
:101DD400A9D093070E6808BF4B690F6018BF002392
:101DE400A6EB07088B60B8F1000F9CDD43463A462A
:101DF400216AA66A2846B047002806DCA38943F076
:101E04004003A3814FF0FF308EE70744A8EB00089E
:101E1400E9E700BF0100402038B50B6905460C46D0
:101E2400DBB118B183690BB900F060F80C4B9C422C
:101E340009D16C68B4F90C307BB121462846BDE861
:101E44003840FFF763BF074B9C4201D1AC68F1E710
:101E5400054B9C4208BFEC68ECE7002038BD00BF8E
:101E64005C2300087C2300083C230008002310B5F1
:101E74000446C0E90033836081814366C281C0E9BE
:101E840004338361194608225C30FFF781FE054B59
:101E94006362054BA362054BE362054B2462236333
:101EA40010BD00BFCD210008EF2100082722000843
:101EB4004B220008014900F085B800BF1D1E000830
:101EC40070B54A1E682555430E4605F1740100F0AD
:101ED40011F9044640B10021C0E900160C30A0609D
:101EE40005F16802FFF754FE204670BD836910B502
:101EF400044633BBC0E912330365124B124A1B6814
:101F04008262984204BF0123836100F01FF860607D
:101F1400204600F01BF8A060204600F017F80022CD
:101F2400E06004216068FFF7A1FF01220921A06895
:101F3400FFF79CFF02221221E068FFF797FF0123BD
:101F4400A36110BD38230008B91E0008F8B51B4B67
:101F54001E68B369074613B93046FFF7C7FF483612
:101F6400D6E90134013B03D5336833B13668F7E76A
:101F7400B4F90C506DB16834F4E704213846FFF726
:101F84009FFF30600028F1D10C233B6004462046BB
:101F9400F8BD0B4B6566C4E90055A560C4E903357B
:101FA400C4E905550822294604F15C00FFF7F0FD59
:101FB400C4E90D55C4E91255E9E700BF3823000808
:101FC4000100FFFF2DE9F8438046894600F14804EB
:101FD400002614B93046BDE8F883D4E90175013F01
:101FE40001D52468F5E7AB89012B07D9B5F90E3083
:101FF400013303D029464046C84706436835EEE717
:1020040070B50E46B1F90E10002996B014461D465F
:1020140007DA00232B60B3891A0610D44FF48063C7
:102024000EE06A4600F036F90028F2DB019A02F469
:102034007042A2F500535A425A412A60EEE7402307
:102044000020236016B070BD024B0146186800F0F2
:1020540051B800BF1000002038B50546002945D00E
:1020640051F8043C0C1F002BB8BFE41800F036F9FB
:102074001F4A1368104633B9636014602846BDE8EC
:10208400384000F02CB9A3420CD92168621893425D
:1020940004BF1A685B68636004BF5218226004605E
:1020A400ECE713465A680AB1A242FAD919685818DB
:1020B400A0420BD120680144581882421960DDD136
:1020C400106852685A6001441960D7E702D90C239A
:1020D4002B60D3E7206821188A4204BF1168526834
:1020E400626004BF091821605C60C7E738BD00BFA7
:1020F4006001002070B5CD1C25F0030508350C2DBA
:1021040038BF0C25002D064601DBA94203D90C2358
:102114003360002070BD00F0E1F8214A14682146C4
:1021240091B9204C23681BB9304600F03DF820607B
:102134002946304600F038F8431C24D10C23336080
:10214400304600F0CCF8E4E70B685B1B18D40B2B8B
:102154000FD90B60CD50CC18304600F0C0F804F114
:102164000B00231D20F00700C31AD3D05A42E250BB
:10217400D0E78C424B6816BF636013600C46EBE7F4
:102184000C464968CCE7C41C24F00304A04205D0E3
:10219400211A304600F008F80130CFD02560DBE783
:1021A400600100206401002038B5064C0023054678
:1021B40008462360FEF7E8FA431C02D1236803B102
:1021C4002B6038BD6C01002010B50C46B1F90E101F
:1021D40000F086F80028ABBF636DA3891B1823F4B5
:1021E4008053ACBF6365A38110BD2DE9F0411F4648
:1021F4008B89DB0505460C46164605D502230022CD
:10220400B1F90E1000F058F8A389B4F90E1023F4B4
:102214008053A38132463B462846BDE8F04100F096
:1022240017B810B50C46B1F90E1000F045F8431C70
:10223400A38915BF606523F4805343F48053A381BD
:1022440018BFA38110BDB1F90E1000F013B800003F
:1022540038B5074C054608461146002222601A4646
:10226400FEF783FA431C02D1236803B12B6038BD07
:102274006C01002038B5064C00230546084623604F
:10228400FEF7A0FA431C02D1236803B12B6038BDCA
:102294006C01002038B5074C00230546084611465A
:1022A4002360FEF792FA431C02D1236803B12B602A
:1022B40038BD00BF6C01002038B5074C0546084600
:1022C4001146002222601A46FEF784FA431C02D10A
:1022D400236803B12B6038BD6C0100207047704740
:1022E40038B5074C054608461146002222601A46B6
:1022F400FEF72DFA431C02D1236803B12B6038BDCD
:102304006C010020F8B500BFF8BC08BC9E467047BD
:0C231400F8B500BFF8BC08BC9E4670473E
:102320000000000000000000010203040607080985
:10233000000000000102030414000020000000005F
:10234000000000000000000000000000000000008D
:10235000000000000000000000000000000000007D
:10236000000000000000000000000000000000006D
:10237000000000000000000000000000000000005D
:10238000000000000000000000000000000000004D
:0C23900000000000000000000000000041
:08239C0098DEFF7F0100000044
:0823A400E90100082D07000803
:0423AC00C50100085F
:1023B000000000000024F4000100000010000000F4
:1023C00014000020000000005C2300087C230008AB
:1023D0003C23000800000000000000000000000096
:1023E00000000000000000000000000000000000ED
:1023F00000000000000000000000000000000000DD
:1024000000000000000000000000000000000000CC
:1024100000000000000000000000000000000000BC
:0424200000000000B8
:0400000508001AC90C
:00000001FF
